{
  "contractName": "Ballot",
  "abi": [
    {
      "inputs": [
        {
          "internalType": "uint8",
          "name": "_numProposals",
          "type": "uint8"
        }
      ],
      "stateMutability": "nonpayable",
      "type": "constructor"
    },
    {
      "inputs": [
        {
          "internalType": "address",
          "name": "toVoter",
          "type": "address"
        }
      ],
      "name": "register",
      "outputs": [],
      "stateMutability": "nonpayable",
      "type": "function"
    },
    {
      "inputs": [
        {
          "internalType": "uint8",
          "name": "toProposal",
          "type": "uint8"
        }
      ],
      "name": "vote",
      "outputs": [],
      "stateMutability": "nonpayable",
      "type": "function"
    },
    {
      "inputs": [],
      "name": "winningProposal",
      "outputs": [
        {
          "internalType": "uint8",
          "name": "_winningProposal",
          "type": "uint8"
        }
      ],
      "stateMutability": "view",
      "type": "function"
    }
  ],
  "bytecode": "0x608060405234801561000f575f80fd5b5060405161074f38038061074f83398181016040528101906100319190610176565b335f806101000a81548173ffffffffffffffffffffffffffffffffffffffff021916908373ffffffffffffffffffffffffffffffffffffffff160217905550600260015f805f9054906101000a900473ffffffffffffffffffffffffffffffffffffffff1673ffffffffffffffffffffffffffffffffffffffff1673ffffffffffffffffffffffffffffffffffffffff1681526020019081526020015f205f01819055505f5b8160ff168160ff16101561013557600260405180602001604052805f815250908060018154018082558091505060019003905f5260205f20015f909190919091505f820151815f01555050808061012d906101ce565b9150506100d7565b50506101f6565b5f80fd5b5f60ff82169050919050565b61015581610140565b811461015f575f80fd5b50565b5f815190506101708161014c565b92915050565b5f6020828403121561018b5761018a61013c565b5b5f61019884828501610162565b91505092915050565b7f4e487b71000000000000000000000000000000000000000000000000000000005f52601160045260245ffd5b5f6101d882610140565b915060ff82036101eb576101ea6101a1565b5b600182019050919050565b61054c806102035f395ff3fe608060405234801561000f575f80fd5b506004361061003f575f3560e01c80634420e48614610043578063609ff1bd1461005f578063b3f98adc1461007d575b5f80fd5b61005d600480360381019061005891906103a4565b610099565b005b6100676101df565b60405161007491906103ea565b60405180910390f35b6100976004803603810190610092919061042d565b61025f565b005b5f8054906101000a900473ffffffffffffffffffffffffffffffffffffffff1673ffffffffffffffffffffffffffffffffffffffff163373ffffffffffffffffffffffffffffffffffffffff1614158061013c575060015f8273ffffffffffffffffffffffffffffffffffffffff1673ffffffffffffffffffffffffffffffffffffffff1681526020019081526020015f206001015f9054906101000a900460ff165b6101dc576001805f8373ffffffffffffffffffffffffffffffffffffffff1673ffffffffffffffffffffffffffffffffffffffff1681526020019081526020015f205f01819055505f60015f8373ffffffffffffffffffffffffffffffffffffffff1673ffffffffffffffffffffffffffffffffffffffff1681526020019081526020015f206001015f6101000a81548160ff0219169083151502179055505b50565b5f805f90505f5b6002805490508160ff16101561025a578160028260ff168154811061020e5761020d610458565b5b905f5260205f20015f015411156102475760028160ff168154811061023657610235610458565b5b905f5260205f20015f015491508092505b8080610252906104b2565b9150506101e6565b505090565b5f60015f3373ffffffffffffffffffffffffffffffffffffffff1673ffffffffffffffffffffffffffffffffffffffff1681526020019081526020015f209050806001015f9054906101000a900460ff16806102c357506002805490508260ff1610155b156102ce5750610343565b6001816001015f6101000a81548160ff021916908315150217905550818160010160016101000a81548160ff021916908360ff160217905550805f015460028360ff168154811061032257610321610458565b5b905f5260205f20015f015f82825461033a91906104e3565b92505081905550505b50565b5f80fd5b5f73ffffffffffffffffffffffffffffffffffffffff82169050919050565b5f6103738261034a565b9050919050565b61038381610369565b811461038d575f80fd5b50565b5f8135905061039e8161037a565b92915050565b5f602082840312156103b9576103b8610346565b5b5f6103c684828501610390565b91505092915050565b5f60ff82169050919050565b6103e4816103cf565b82525050565b5f6020820190506103fd5f8301846103db565b92915050565b61040c816103cf565b8114610416575f80fd5b50565b5f8135905061042781610403565b92915050565b5f6020828403121561044257610441610346565b5b5f61044f84828501610419565b91505092915050565b7f4e487b71000000000000000000000000000000000000000000000000000000005f52603260045260245ffd5b7f4e487b71000000000000000000000000000000000000000000000000000000005f52601160045260245ffd5b5f6104bc826103cf565b915060ff82036104cf576104ce610485565b5b600182019050919050565b5f819050919050565b5f6104ed826104da565b91506104f8836104da565b92508282019050808211156105105761050f610485565b5b9291505056fea264697066735822122022af7f60449c7a38e20574111916cc78bef4b037f8c8667b4e8c9a1993d9476064736f6c63430008150033",
  "immutableReferences": {},
  "source": "// SPDX-License-Identifier: MIT\r\npragma solidity >=0.4.22 <0.9.0;\r\n\r\ncontract Ballot {\r\n\r\n    struct Voter {\r\n        uint weight;\r\n        bool voted;\r\n        uint8 vote;\r\n       // address delegate;\r\n    }\r\n    struct Proposal {\r\n        uint voteCount; // could add other data about proposal\r\n    }\r\n\r\n    address chairperson;\r\n    mapping(address => Voter) voters;\r\n    Proposal[] proposals;\r\n    \r\n\r\n    /// Create a new ballot with $(_numProposals) different proposals.\r\n    constructor(uint8 _numProposals)  {\r\n        chairperson = msg.sender;\r\n        voters[chairperson].weight = 2;\r\n       for (uint8 i = 0; i < _numProposals; i++) {\r\n         proposals.push(Proposal(0));\r\n     }\r\n\r\n    }\r\n\r\n    /// Give $(toVoter) the right to vote on this ballot.\r\n    /// May only be called by $(chairperson).\r\n    function register(address toVoter) public {\r\n        if (msg.sender != chairperson || voters[toVoter].voted) return;\r\n        voters[toVoter].weight = 1;\r\n        voters[toVoter].voted = false;\r\n    }\r\n\r\n    /// Give a single vote to proposal $(toProposal).\r\n    function vote(uint8 toProposal) public {\r\n        Voter storage sender = voters[msg.sender];\r\n        if (sender.voted || toProposal >= proposals.length) return;\r\n        sender.voted = true;\r\n        sender.vote = toProposal;\r\n        proposals[toProposal].voteCount += sender.weight;\r\n    }\r\n\r\n    function winningProposal() public view returns (uint8 _winningProposal) {\r\n        uint256 winningVoteCount = 0;\r\n        for (uint8 prop = 0; prop < proposals.length; prop++)\r\n            if (proposals[prop].voteCount > winningVoteCount) {\r\n                winningVoteCount = proposals[prop].voteCount;\r\n                _winningProposal = prop;\r\n            }\r\n    }\r\n}\r\n \r\n",
  "sourcePath": "C:\\Users\\bilal\\OneDrive\\Desktop\\android blockchain based voting\\contracts\\stages.sol",
  "compiler": {
    "name": "solc",
    "version": "0.8.21+commit.d9974bed.Emscripten.clang"
  },
  "schemaVersion": "3.4.16",
  "updatedAt": "2024-01-26T16:59:26.736Z",
  "devdoc": {
    "kind": "dev",
    "methods": {},
    "version": 1
  },
  "userdoc": {
    "kind": "user",
    "methods": {
      "constructor": {
        "notice": "Create a new ballot with $(_numProposals) different proposals."
      },
      "register(address)": {
        "notice": "Give $(toVoter) the right to vote on this ballot. May only be called by $(chairperson)."
      },
      "vote(uint8)": {
        "notice": "Give a single vote to proposal $(toProposal)."
      }
    },
    "version": 1
  }
}