{
  "contractName": "BlockchainVoting",
  "abi": [
    {
      "inputs": [],
      "stateMutability": "nonpayable",
      "type": "constructor"
    },
    {
      "inputs": [],
      "name": "_AlreadyVoted",
      "type": "error"
    },
    {
      "inputs": [],
      "name": "_CandidateAlreadyExit",
      "type": "error"
    },
    {
      "inputs": [],
      "name": "_CandidateNotVoteItSlef",
      "type": "error"
    },
    {
      "inputs": [
        {
          "internalType": "address",
          "name": "_Address",
          "type": "address"
        },
        {
          "internalType": "string",
          "name": "_name",
          "type": "string"
        }
      ],
      "name": "SetCandidate",
      "outputs": [],
      "stateMutability": "nonpayable",
      "type": "function"
    },
    {
      "inputs": [
        {
          "internalType": "uint256",
          "name": "_Id",
          "type": "uint256"
        },
        {
          "internalType": "string",
          "name": "_name",
          "type": "string"
        },
        {
          "internalType": "address",
          "name": "_voterAddress",
          "type": "address"
        },
        {
          "internalType": "address",
          "name": "_CandidateAddress",
          "type": "address"
        }
      ],
      "name": "SetVote",
      "outputs": [],
      "stateMutability": "nonpayable",
      "type": "function"
    },
    {
      "inputs": [
        {
          "internalType": "address",
          "name": "_requestAddress",
          "type": "address"
        },
        {
          "internalType": "string",
          "name": "_name",
          "type": "string"
        }
      ],
      "name": "RequestForNextVoting",
      "outputs": [],
      "stateMutability": "nonpayable",
      "type": "function"
    },
    {
      "inputs": [],
      "name": "getRequestPropsal",
      "outputs": [
        {
          "components": [
            {
              "internalType": "string",
              "name": "name",
              "type": "string"
            },
            {
              "internalType": "address",
              "name": "_CandidateAddress",
              "type": "address"
            }
          ],
          "internalType": "struct BlockchainVoting.propsal[]",
          "name": "",
          "type": "tuple[]"
        }
      ],
      "stateMutability": "view",
      "type": "function"
    },
    {
      "inputs": [],
      "name": "getCandidate",
      "outputs": [
        {
          "components": [
            {
              "internalType": "string",
              "name": "name",
              "type": "string"
            },
            {
              "internalType": "address",
              "name": "_CandidateAddress",
              "type": "address"
            },
            {
              "internalType": "uint256",
              "name": "vote",
              "type": "uint256"
            }
          ],
          "internalType": "struct BlockchainVoting.Candidate[]",
          "name": "",
          "type": "tuple[]"
        }
      ],
      "stateMutability": "view",
      "type": "function"
    },
    {
      "inputs": [],
      "name": "getVoter",
      "outputs": [
        {
          "components": [
            {
              "internalType": "uint256",
              "name": "Id",
              "type": "uint256"
            },
            {
              "internalType": "string",
              "name": "name",
              "type": "string"
            },
            {
              "internalType": "address",
              "name": "voterAddress",
              "type": "address"
            },
            {
              "internalType": "address",
              "name": "_CandidateAddress",
              "type": "address"
            }
          ],
          "internalType": "struct BlockchainVoting.voter[]",
          "name": "",
          "type": "tuple[]"
        }
      ],
      "stateMutability": "view",
      "type": "function"
    }
  ],
  "bytecode": "0x608060405234801561000f575f80fd5b50335f806101000a81548173ffffffffffffffffffffffffffffffffffffffff021916908373ffffffffffffffffffffffffffffffffffffffff1602179055506117048061005c5f395ff3fe608060405234801561000f575f80fd5b5060043610610060575f3560e01c80632b37f53c146100645780634db830c01461008257806350c7ef6c1461009e57806370218b85146100bc5780638cd4c7aa146100da578063ff404bc5146100f6575b5f80fd5b61006c610112565b6040516100799190610dfe565b60405180910390f35b61009c60048036038101906100979190610faf565b6102b1565b005b6100a66106cb565b6040516100b39190611124565b60405180910390f35b6100c461080b565b6040516100d1919061124c565b60405180910390f35b6100f460048036038101906100ef919061126c565b610955565b005b610110600480360381019061010b919061126c565b610b4f565b005b60606003805480602002602001604051908101604052809291908181526020015f905b828210156102a8578382905f5260205f2090600402016040518060800160405290815f820154815260200160018201805461016f906112f3565b80601f016020809104026020016040519081016040528092919081815260200182805461019b906112f3565b80156101e65780601f106101bd576101008083540402835291602001916101e6565b820191905f5260205f20905b8154815290600101906020018083116101c957829003601f168201915b50505050508152602001600282015f9054906101000a900473ffffffffffffffffffffffffffffffffffffffff1673ffffffffffffffffffffffffffffffffffffffff1673ffffffffffffffffffffffffffffffffffffffff168152602001600382015f9054906101000a900473ffffffffffffffffffffffffffffffffffffffff1673ffffffffffffffffffffffffffffffffffffffff1673ffffffffffffffffffffffffffffffffffffffff168152505081526020019060010190610135565b50505050905090565b600260048054905010156102fa576040517f08c379a00000000000000000000000000000000000000000000000000000000081526004016102f1906113a3565b60405180910390fd5b5f5b6003805490508110156103f157846003828154811061031e5761031d6113c1565b5b905f5260205f2090600402015f01541480156103a757508273ffffffffffffffffffffffffffffffffffffffff16600382815481106103605761035f6113c1565b5b905f5260205f2090600402016002015f9054906101000a900473ffffffffffffffffffffffffffffffffffffffff1673ffffffffffffffffffffffffffffffffffffffff16145b156103de576040517f212bc1a700000000000000000000000000000000000000000000000000000000815260040160405180910390fd5b80806103e99061141b565b9150506102fc565b505f5b6004805490508110156104bb578273ffffffffffffffffffffffffffffffffffffffff166004828154811061042c5761042b6113c1565b5b905f5260205f2090600302016001015f9054906101000a900473ffffffffffffffffffffffffffffffffffffffff1673ffffffffffffffffffffffffffffffffffffffff16036104a8576040517f0231a24900000000000000000000000000000000000000000000000000000000815260040160405180910390fd5b80806104b39061141b565b9150506103f4565b505f5b6004805490508110156106c4578173ffffffffffffffffffffffffffffffffffffffff16600482815481106104f6576104f56113c1565b5b905f5260205f2090600302016001015f9054906101000a900473ffffffffffffffffffffffffffffffffffffffff1673ffffffffffffffffffffffffffffffffffffffff16036106b15760048181548110610554576105536113c1565b5b905f5260205f2090600302016002015f8154809291906105739061141b565b9190505550600360405180608001604052808781526020018681526020018573ffffffffffffffffffffffffffffffffffffffff1681526020018473ffffffffffffffffffffffffffffffffffffffff16815250908060018154018082558091505060019003905f5260205f2090600402015f909190919091505f820151815f0155602082015181600101908161060a91906115ff565b506040820151816002015f6101000a81548173ffffffffffffffffffffffffffffffffffffffff021916908373ffffffffffffffffffffffffffffffffffffffff1602179055506060820151816003015f6101000a81548173ffffffffffffffffffffffffffffffffffffffff021916908373ffffffffffffffffffffffffffffffffffffffff160217905550505060025f8154809291906106ab9061141b565b91905055505b80806106bc9061141b565b9150506104be565b5050505050565b60606005805480602002602001604051908101604052809291908181526020015f905b82821015610802578382905f5260205f2090600202016040518060400160405290815f8201805461071e906112f3565b80601f016020809104026020016040519081016040528092919081815260200182805461074a906112f3565b80156107955780601f1061076c57610100808354040283529160200191610795565b820191905f5260205f20905b81548152906001019060200180831161077857829003601f168201915b50505050508152602001600182015f9054906101000a900473ffffffffffffffffffffffffffffffffffffffff1673ffffffffffffffffffffffffffffffffffffffff1673ffffffffffffffffffffffffffffffffffffffff1681525050815260200190600101906106ee565b50505050905090565b60606004805480602002602001604051908101604052809291908181526020015f905b8282101561094c578382905f5260205f2090600302016040518060600160405290815f8201805461085e906112f3565b80601f016020809104026020016040519081016040528092919081815260200182805461088a906112f3565b80156108d55780601f106108ac576101008083540402835291602001916108d5565b820191905f5260205f20905b8154815290600101906020018083116108b857829003601f168201915b50505050508152602001600182015f9054906101000a900473ffffffffffffffffffffffffffffffffffffffff1673ffffffffffffffffffffffffffffffffffffffff1673ffffffffffffffffffffffffffffffffffffffff1681526020016002820154815250508152602001906001019061082e565b50505050905090565b5f8054906101000a900473ffffffffffffffffffffffffffffffffffffffff1673ffffffffffffffffffffffffffffffffffffffff163373ffffffffffffffffffffffffffffffffffffffff16146109ab575f80fd5b5f5b600480549050811015610a74578273ffffffffffffffffffffffffffffffffffffffff16600482815481106109e5576109e46113c1565b5b905f5260205f2090600302016001015f9054906101000a900473ffffffffffffffffffffffffffffffffffffffff1673ffffffffffffffffffffffffffffffffffffffff1603610a61576040517f1e43c59000000000000000000000000000000000000000000000000000000000815260040160405180910390fd5b8080610a6c9061141b565b9150506109ad565b50600460405180606001604052808381526020018473ffffffffffffffffffffffffffffffffffffffff1681526020015f815250908060018154018082558091505060019003905f5260205f2090600302015f909190919091505f820151815f019081610ae191906115ff565b506020820151816001015f6101000a81548173ffffffffffffffffffffffffffffffffffffffff021916908373ffffffffffffffffffffffffffffffffffffffff16021790555060408201518160020155505060015f815480929190610b469061141b565b91905055505050565b600560405180604001604052808381526020018473ffffffffffffffffffffffffffffffffffffffff16815250908060018154018082558091505060019003905f5260205f2090600202015f909190919091505f820151815f019081610bb591906115ff565b506020820151816001015f6101000a81548173ffffffffffffffffffffffffffffffffffffffff021916908373ffffffffffffffffffffffffffffffffffffffff16021790555050505050565b5f81519050919050565b5f82825260208201905092915050565b5f819050602082019050919050565b5f819050919050565b610c3d81610c2b565b82525050565b5f81519050919050565b5f82825260208201905092915050565b5f5b83811015610c7a578082015181840152602081019050610c5f565b5f8484015250505050565b5f601f19601f8301169050919050565b5f610c9f82610c43565b610ca98185610c4d565b9350610cb9818560208601610c5d565b610cc281610c85565b840191505092915050565b5f73ffffffffffffffffffffffffffffffffffffffff82169050919050565b5f610cf682610ccd565b9050919050565b610d0681610cec565b82525050565b5f608083015f830151610d215f860182610c34565b5060208301518482036020860152610d398282610c95565b9150506040830151610d4e6040860182610cfd565b506060830151610d616060860182610cfd565b508091505092915050565b5f610d778383610d0c565b905092915050565b5f602082019050919050565b5f610d9582610c02565b610d9f8185610c0c565b935083602082028501610db185610c1c565b805f5b85811015610dec5784840389528151610dcd8582610d6c565b9450610dd883610d7f565b925060208a01995050600181019050610db4565b50829750879550505050505092915050565b5f6020820190508181035f830152610e168184610d8b565b905092915050565b5f604051905090565b5f80fd5b5f80fd5b610e3881610c2b565b8114610e42575f80fd5b50565b5f81359050610e5381610e2f565b92915050565b5f80fd5b5f80fd5b7f4e487b71000000000000000000000000000000000000000000000000000000005f52604160045260245ffd5b610e9782610c85565b810181811067ffffffffffffffff82111715610eb657610eb5610e61565b5b80604052505050565b5f610ec8610e1e565b9050610ed48282610e8e565b919050565b5f67ffffffffffffffff821115610ef357610ef2610e61565b5b610efc82610c85565b9050602081019050919050565b828183375f83830152505050565b5f610f29610f2484610ed9565b610ebf565b905082815260208101848484011115610f4557610f44610e5d565b5b610f50848285610f09565b509392505050565b5f82601f830112610f6c57610f6b610e59565b5b8135610f7c848260208601610f17565b91505092915050565b610f8e81610cec565b8114610f98575f80fd5b50565b5f81359050610fa981610f85565b92915050565b5f805f8060808587031215610fc757610fc6610e27565b5b5f610fd487828801610e45565b945050602085013567ffffffffffffffff811115610ff557610ff4610e2b565b5b61100187828801610f58565b935050604061101287828801610f9b565b925050606061102387828801610f9b565b91505092959194509250565b5f81519050919050565b5f82825260208201905092915050565b5f819050602082019050919050565b5f604083015f8301518482035f8601526110728282610c95565b91505060208301516110876020860182610cfd565b508091505092915050565b5f61109d8383611058565b905092915050565b5f602082019050919050565b5f6110bb8261102f565b6110c58185611039565b9350836020820285016110d785611049565b805f5b8581101561111257848403895281516110f38582611092565b94506110fe836110a5565b925060208a019950506001810190506110da565b50829750879550505050505092915050565b5f6020820190508181035f83015261113c81846110b1565b905092915050565b5f81519050919050565b5f82825260208201905092915050565b5f819050602082019050919050565b5f606083015f8301518482035f8601526111878282610c95565b915050602083015161119c6020860182610cfd565b5060408301516111af6040860182610c34565b508091505092915050565b5f6111c5838361116d565b905092915050565b5f602082019050919050565b5f6111e382611144565b6111ed818561114e565b9350836020820285016111ff8561115e565b805f5b8581101561123a578484038952815161121b85826111ba565b9450611226836111cd565b925060208a01995050600181019050611202565b50829750879550505050505092915050565b5f6020820190508181035f83015261126481846111d9565b905092915050565b5f806040838503121561128257611281610e27565b5b5f61128f85828601610f9b565b925050602083013567ffffffffffffffff8111156112b0576112af610e2b565b5b6112bc85828601610f58565b9150509250929050565b7f4e487b71000000000000000000000000000000000000000000000000000000005f52602260045260245ffd5b5f600282049050600182168061130a57607f821691505b60208210810361131d5761131c6112c6565b5b50919050565b5f82825260208201905092915050565b7f43616e646964617465202067726561746572207468656e2032206f72204d75735f8201527f7420426520322000000000000000000000000000000000000000000000000000602082015250565b5f61138d602783611323565b915061139882611333565b604082019050919050565b5f6020820190508181035f8301526113ba81611381565b9050919050565b7f4e487b71000000000000000000000000000000000000000000000000000000005f52603260045260245ffd5b7f4e487b71000000000000000000000000000000000000000000000000000000005f52601160045260245ffd5b5f61142582610c2b565b91507fffffffffffffffffffffffffffffffffffffffffffffffffffffffffffffffff8203611457576114566113ee565b5b600182019050919050565b5f819050815f5260205f209050919050565b5f6020601f8301049050919050565b5f82821b905092915050565b5f600883026114be7fffffffffffffffffffffffffffffffffffffffffffffffffffffffffffffffff82611483565b6114c88683611483565b95508019841693508086168417925050509392505050565b5f819050919050565b5f6115036114fe6114f984610c2b565b6114e0565b610c2b565b9050919050565b5f819050919050565b61151c836114e9565b6115306115288261150a565b84845461148f565b825550505050565b5f90565b611544611538565b61154f818484611513565b505050565b5b81811015611572576115675f8261153c565b600181019050611555565b5050565b601f8211156115b75761158881611462565b61159184611474565b810160208510156115a0578190505b6115b46115ac85611474565b830182611554565b50505b505050565b5f82821c905092915050565b5f6115d75f19846008026115bc565b1980831691505092915050565b5f6115ef83836115c8565b9150826002028217905092915050565b61160882610c43565b67ffffffffffffffff81111561162157611620610e61565b5b61162b82546112f3565b611636828285611576565b5f60209050601f831160018114611667575f8415611655578287015190505b61165f85826115e4565b8655506116c6565b601f19841661167586611462565b5f5b8281101561169c57848901518255600182019150602085019450602081019050611677565b868310156116b957848901516116b5601f8916826115c8565b8355505b6001600288020188555050505b50505050505056fea264697066735822122076071c925f53edd8c6597ad0274abcbeeb41bbf3adae7436b93aec860f404cd464736f6c63430008150033",
  "immutableReferences": {},
  "source": "// SPDX-License-Identifier: MIT\r\npragma solidity >=0.4.22 <0.9.0;\r\n\r\nerror _CandidateAlreadyExit();\r\nerror _AlreadyVoted();\r\nerror _CandidateNotVoteItSlef();\r\n\r\ncontract BlockchainVoting {\r\n    address Manger;\r\n    uint256 TotalCandidates;\r\n    uint256 TotalVoters;\r\n\r\n    constructor() {\r\n        Manger = msg.sender;\r\n    }\r\n\r\n    struct voter {\r\n        uint256 Id;\r\n        string name;\r\n        address voterAddress;\r\n        address _CandidateAddress;\r\n    }\r\n\r\n    struct Candidate {\r\n        string name;\r\n        address _CandidateAddress;\r\n        uint vote;\r\n    }\r\n\r\n    struct propsal {\r\n        string name;\r\n        address _CandidateAddress;\r\n    }\r\n\r\n    voter[] voters;\r\n    Candidate[] Candidates;\r\n    propsal[] propsals;\r\n\r\n    function SetCandidate(\r\n        address _Address,\r\n        string memory _name\r\n    ) external OnlyManger {\r\n        for (uint256 i = 0; i < Candidates.length; i++) {\r\n            if (Candidates[i]._CandidateAddress == _Address) {\r\n                revert _CandidateAlreadyExit();\r\n            } else {}\r\n        }\r\n        Candidates.push(Candidate(_name, _Address, 0));\r\n        TotalCandidates++;\r\n    }\r\n\r\n    function SetVote(\r\n        uint256 _Id,\r\n        string memory _name,\r\n        address _voterAddress,\r\n        address _CandidateAddress\r\n    ) external {\r\n        require(\r\n            Candidates.length >= 2,\r\n            \"Candidate  greater then 2 or Must Be 2 \"\r\n        );\r\n        for (uint256 i = 0; i < voters.length; i++) {\r\n            if (\r\n                voters[i].Id == _Id && voters[i].voterAddress == _voterAddress\r\n            ) {\r\n                revert _AlreadyVoted();\r\n            }\r\n        }\r\n\r\n        for (uint256 i = 0; i < Candidates.length; i++) {\r\n            if (Candidates[i]._CandidateAddress == _voterAddress) {\r\n                revert _CandidateNotVoteItSlef();\r\n            }\r\n        }\r\n\r\n        for (uint i; i < Candidates.length; i++) {\r\n            if (Candidates[i]._CandidateAddress == _CandidateAddress) {\r\n                Candidates[i].vote++;\r\n                voters.push(\r\n                    voter(_Id, _name, _voterAddress, _CandidateAddress)\r\n                );\r\n                TotalVoters++;\r\n            }\r\n        }\r\n    }\r\n\r\n    function RequestForNextVoting(\r\n        address _requestAddress,\r\n        string memory _name\r\n    ) external {\r\n        propsals.push(propsal(_name, _requestAddress));\r\n    }\r\n\r\n    function getRequestPropsal() external view returns (propsal[] memory) {\r\n        return propsals;\r\n    }\r\n\r\n    function getCandidate() external view returns (Candidate[] memory) {\r\n        return Candidates;\r\n    }\r\n\r\n    function getVoter() external view returns (voter[] memory) {\r\n        return voters;\r\n    }\r\n\r\n    modifier OnlyManger() {\r\n        require(msg.sender == Manger);\r\n        _;\r\n    }\r\n}",
  "sourcePath": "C:\\Users\\bilal\\OneDrive\\Desktop\\android blockchain based voting\\contracts\\contractmain.sol",
  "compiler": {
    "name": "solc",
    "version": "0.8.21+commit.d9974bed.Emscripten.clang"
  },
  "schemaVersion": "3.4.16",
  "updatedAt": "2024-01-26T16:59:26.749Z",
  "devdoc": {
    "kind": "dev",
    "methods": {},
    "version": 1
  },
  "userdoc": {
    "kind": "user",
    "methods": {},
    "version": 1
  }
}